{
  "contractName": "QuantstampAudit",
  "abi": [
    {
      "constant": true,
      "inputs": [],
      "name": "owner",
      "outputs": [
        {
          "name": "",
          "type": "address"
        }
      ],
      "payable": false,
      "stateMutability": "view",
      "type": "function"
    },
    {
      "constant": true,
      "inputs": [],
      "name": "transactionFee",
      "outputs": [
        {
          "name": "",
          "type": "uint256"
        }
      ],
      "payable": false,
      "stateMutability": "view",
      "type": "function"
    },
    {
      "constant": true,
      "inputs": [
        {
          "name": "",
          "type": "uint256"
        }
      ],
      "name": "audits",
      "outputs": [
        {
          "name": "requestor",
          "type": "address"
        },
        {
          "name": "contractUri",
          "type": "string"
        },
        {
          "name": "price",
          "type": "uint256"
        },
        {
          "name": "transactionFee",
          "type": "uint256"
        },
        {
          "name": "requestTimestamp",
          "type": "uint256"
        },
        {
          "name": "state",
          "type": "uint8"
        },
        {
          "name": "auditor",
          "type": "address"
        },
        {
          "name": "assignTimestamp",
          "type": "uint256"
        },
        {
          "name": "reportUri",
          "type": "string"
        },
        {
          "name": "reportHash",
          "type": "string"
        },
        {
          "name": "reportTimestamp",
          "type": "uint256"
        }
      ],
      "payable": false,
      "stateMutability": "view",
      "type": "function"
    },
    {
      "constant": true,
      "inputs": [],
      "name": "auditTimeoutInBlocks",
      "outputs": [
        {
          "name": "",
          "type": "uint256"
        }
      ],
      "payable": false,
      "stateMutability": "view",
      "type": "function"
    },
    {
      "constant": false,
      "inputs": [
        {
          "name": "newOwner",
          "type": "address"
        }
      ],
      "name": "transferOwnership",
      "outputs": [],
      "payable": false,
      "stateMutability": "nonpayable",
      "type": "function"
    },
    {
      "constant": true,
      "inputs": [],
      "name": "token",
      "outputs": [
        {
          "name": "",
          "type": "address"
        }
      ],
      "payable": false,
      "stateMutability": "view",
      "type": "function"
    },
    {
      "inputs": [
        {
          "name": "tokenAddress",
          "type": "address"
        }
      ],
      "payable": false,
      "stateMutability": "nonpayable",
      "type": "constructor"
    },
    {
      "anonymous": false,
      "inputs": [
        {
          "indexed": false,
          "name": "requestId",
          "type": "uint256"
        },
        {
          "indexed": false,
          "name": "reportUri",
          "type": "string"
        },
        {
          "indexed": false,
          "name": "reportHash",
          "type": "string"
        },
        {
          "indexed": false,
          "name": "reportTimestamp",
          "type": "uint256"
        }
      ],
      "name": "LogAuditFinished",
      "type": "event"
    },
    {
      "anonymous": false,
      "inputs": [
        {
          "indexed": false,
          "name": "requestId",
          "type": "uint256"
        },
        {
          "indexed": false,
          "name": "requestor",
          "type": "address"
        },
        {
          "indexed": false,
          "name": "uri",
          "type": "string"
        },
        {
          "indexed": false,
          "name": "price",
          "type": "uint256"
        }
      ],
      "name": "LogAuditQueued",
      "type": "event"
    },
    {
      "anonymous": false,
      "inputs": [
        {
          "indexed": false,
          "name": "requestId",
          "type": "uint256"
        },
        {
          "indexed": false,
          "name": "auditor",
          "type": "address"
        },
        {
          "indexed": false,
          "name": "requestor",
          "type": "address"
        },
        {
          "indexed": false,
          "name": "uri",
          "type": "string"
        },
        {
          "indexed": false,
          "name": "price",
          "type": "uint256"
        }
      ],
      "name": "LogAuditAssigned",
      "type": "event"
    },
    {
      "anonymous": false,
      "inputs": [
        {
          "indexed": false,
          "name": "requestId",
          "type": "uint256"
        },
        {
          "indexed": false,
          "name": "auditor",
          "type": "address"
        },
        {
          "indexed": false,
          "name": "auditResult",
          "type": "uint8"
        },
        {
          "indexed": false,
          "name": "reportUri",
          "type": "string"
        },
        {
          "indexed": false,
          "name": "reportHash",
          "type": "string"
        }
      ],
      "name": "LogReportSubmitted",
      "type": "event"
    },
    {
      "anonymous": false,
      "inputs": [
        {
          "indexed": false,
          "name": "requestId",
          "type": "uint256"
        },
        {
          "indexed": false,
          "name": "auditor",
          "type": "address"
        }
      ],
      "name": "LogReportSubmissionError_InvalidAuditor",
      "type": "event"
    },
    {
      "anonymous": false,
      "inputs": [
        {
          "indexed": false,
          "name": "requestId",
          "type": "uint256"
        },
        {
          "indexed": false,
          "name": "state",
          "type": "uint8"
        }
      ],
      "name": "LogReportSubmissionError_InvalidState",
      "type": "event"
    },
    {
      "anonymous": false,
      "inputs": [
        {
          "indexed": false,
          "name": "requestId",
          "type": "uint256"
        },
        {
          "indexed": false,
          "name": "requestor",
          "type": "address"
        },
        {
          "indexed": false,
          "name": "uri",
          "type": "string"
        }
      ],
      "name": "LogErrorAlreadyAudited",
      "type": "event"
    },
    {
      "anonymous": false,
      "inputs": [
        {
          "indexed": false,
          "name": "requestId",
          "type": "uint256"
        },
        {
          "indexed": false,
          "name": "requestor",
          "type": "address"
        },
        {
          "indexed": false,
          "name": "uri",
          "type": "string"
        }
      ],
      "name": "LogUnableToQueueAudit",
      "type": "event"
    },
    {
      "anonymous": false,
      "inputs": [
        {
          "indexed": false,
          "name": "requestId",
          "type": "uint256"
        }
      ],
      "name": "LogUnableToAssignAudit",
      "type": "event"
    },
    {
      "anonymous": false,
      "inputs": [],
      "name": "LogAuditQueueIsEmpty",
      "type": "event"
    },
    {
      "anonymous": false,
      "inputs": [
        {
          "indexed": false,
          "name": "requestId",
          "type": "uint256"
        },
        {
          "indexed": false,
          "name": "auditor",
          "type": "address"
        },
        {
          "indexed": false,
          "name": "amount",
          "type": "uint256"
        }
      ],
      "name": "LogPayAuditor",
      "type": "event"
    },
    {
      "anonymous": false,
      "inputs": [
        {
          "indexed": false,
          "name": "requestId",
          "type": "uint256"
        },
        {
          "indexed": false,
          "name": "requestor",
          "type": "address"
        },
        {
          "indexed": false,
          "name": "amount",
          "type": "uint256"
        }
      ],
      "name": "LogRefund",
      "type": "event"
    },
    {
      "anonymous": false,
      "inputs": [
        {
          "indexed": false,
          "name": "oldFee",
          "type": "uint256"
        },
        {
          "indexed": false,
          "name": "newFee",
          "type": "uint256"
        }
      ],
      "name": "LogTransactionFeeChanged",
      "type": "event"
    },
    {
      "anonymous": false,
      "inputs": [
        {
          "indexed": false,
          "name": "requestId",
          "type": "uint256"
        },
        {
          "indexed": false,
          "name": "auditor",
          "type": "address"
        }
      ],
      "name": "LogErrorAuditNotPending",
      "type": "event"
    },
    {
      "anonymous": false,
      "inputs": [
        {
          "indexed": true,
          "name": "previousOwner",
          "type": "address"
        },
        {
          "indexed": true,
          "name": "newOwner",
          "type": "address"
        }
      ],
      "name": "OwnershipTransferred",
      "type": "event"
    },
    {
      "constant": false,
      "inputs": [
        {
          "name": "contractUri",
          "type": "string"
        },
        {
          "name": "price",
          "type": "uint256"
        }
      ],
      "name": "requestAudit",
      "outputs": [
        {
          "name": "",
          "type": "uint256"
        }
      ],
      "payable": true,
      "stateMutability": "payable",
      "type": "function"
    },
    {
      "constant": false,
      "inputs": [
        {
          "name": "requestId",
          "type": "uint256"
        },
        {
          "name": "auditResult",
          "type": "uint8"
        },
        {
          "name": "reportUri",
          "type": "string"
        },
        {
          "name": "reportHash",
          "type": "string"
        }
      ],
      "name": "submitReport",
      "outputs": [],
      "payable": false,
      "stateMutability": "nonpayable",
      "type": "function"
    },
    {
      "constant": false,
      "inputs": [],
      "name": "getNextAuditRequest",
      "outputs": [],
      "payable": false,
      "stateMutability": "nonpayable",
      "type": "function"
    },
    {
      "constant": false,
      "inputs": [
        {
          "name": "fee",
          "type": "uint256"
        }
      ],
      "name": "setTransactionFee",
      "outputs": [],
      "payable": false,
      "stateMutability": "nonpayable",
      "type": "function"
    },
    {
      "constant": false,
      "inputs": [],
      "name": "detectAuditTimeouts",
      "outputs": [],
      "payable": false,
      "stateMutability": "nonpayable",
      "type": "function"
    },
    {
      "constant": false,
      "inputs": [
        {
          "name": "requestId",
          "type": "uint256"
        }
      ],
      "name": "detectTimeout",
      "outputs": [],
      "payable": false,
      "stateMutability": "nonpayable",
      "type": "function"
    },
    {
      "constant": true,
      "inputs": [
        {
          "name": "requestId",
          "type": "uint256"
        }
      ],
      "name": "isAuditFinished",
      "outputs": [
        {
          "name": "",
          "type": "bool"
        }
      ],
      "payable": false,
      "stateMutability": "view",
      "type": "function"
    },
    {
      "constant": false,
      "inputs": [
        {
          "name": "requestId",
          "type": "uint256"
        }
      ],
      "name": "refund",
      "outputs": [
        {
          "name": "",
          "type": "bool"
        }
      ],
      "payable": false,
      "stateMutability": "nonpayable",
      "type": "function"
    },
    {
      "constant": true,
      "inputs": [
        {
          "name": "requestId",
          "type": "uint256"
        }
      ],
      "name": "getAuditState",
      "outputs": [
        {
          "name": "",
          "type": "uint8"
        }
      ],
      "payable": false,
      "stateMutability": "view",
      "type": "function"
    },
    {
      "constant": true,
      "inputs": [],
      "name": "getQueueLength",
      "outputs": [
        {
          "name": "",
          "type": "uint256"
        }
      ],
      "payable": false,
      "stateMutability": "view",
      "type": "function"
    },
    {
      "constant": true,
      "inputs": [],
      "name": "getQueueCapacity",
      "outputs": [
        {
          "name": "",
          "type": "uint256"
        }
      ],
      "payable": false,
      "stateMutability": "view",
      "type": "function"
    },
    {
      "constant": false,
      "inputs": [
        {
          "name": "timeoutInBlocks",
          "type": "uint256"
        }
      ],
      "name": "setAuditTimeout",
      "outputs": [],
      "payable": false,
      "stateMutability": "nonpayable",
      "type": "function"
    }
  ],
  "bytecode": "0x6060604052600a60025534156200001557600080fd5b60405160208062002ad983398101604052808051906020019091905050336000806101000a81548173ffffffffffffffffffffffffffffffffffffffff021916908373ffffffffffffffffffffffffffffffffffffffff160217905550600073ffffffffffffffffffffffffffffffffffffffff168173ffffffffffffffffffffffffffffffffffffffff1614151515620000af57600080fd5b80600560006101000a81548173ffffffffffffffffffffffffffffffffffffffff021916908373ffffffffffffffffffffffffffffffffffffffff160217905550617530620000fd620001d3565b80828152602001915050604051809103906000f08015156200011e57600080fd5b600360006101000a81548173ffffffffffffffffffffffffffffffffffffffff021916908373ffffffffffffffffffffffffffffffffffffffff1602179055506175306200016b620001d3565b80828152602001915050604051809103906000f08015156200018c57600080fd5b600460006101000a81548173ffffffffffffffffffffffffffffffffffffffff021916908373ffffffffffffffffffffffffffffffffffffffff16021790555050620001e4565b60405161045c806200267d83390190565b61248980620001f46000396000f3006060604052600436106100fc576000357c0100000000000000000000000000000000000000000000000000000000900463ffffffff1680630783c2ef14610101578063096a8ab71461014657806310debdf81461016957806325200718146101a4578063278ecde1146101e457806337eaf9c01461021f5780638da5cb5b146102d45780639ed3edf014610329578063aef2da0414610352578063b60e73db14610367578063b8f77005146105d0578063bac1060c146105f9578063be7a31641461061c578063c9f21fec14610631578063de42f04514610654578063e07ab27b1461067d578063f2fde38b146106a6578063fc0c546a146106df575b600080fd5b341561010c57600080fd5b6101226004808035906020019091905050610734565b6040518082600581111561013257fe5b60ff16815260200191505060405180910390f35b341561015157600080fd5b6101676004808035906020019091905050610761565b005b341561017457600080fd5b61018a6004808035906020019091905050610807565b604051808215151515815260200191505060405180910390f35b6101ce600480803590602001908201803590602001919091929080359060200190919050506108d4565b6040518082815260200191505060405180910390f35b34156101ef57600080fd5b6102056004808035906020019091905050610eb8565b604051808215151515815260200191505060405180910390f35b341561022a57600080fd5b6102d2600480803590602001909190803560ff1690602001909190803590602001908201803590602001908080601f0160208091040260200160405190810160405280939291908181526020018383808284378201915050505050509190803590602001908201803590602001908080601f016020809104026020016040519081016040528093929190818152602001838380828437820191505050505050919050506110c2565b005b34156102df57600080fd5b6102e76117de565b604051808273ffffffffffffffffffffffffffffffffffffffff1673ffffffffffffffffffffffffffffffffffffffff16815260200191505060405180910390f35b341561033457600080fd5b61033c611803565b6040518082815260200191505060405180910390f35b341561035d57600080fd5b610365611809565b005b341561037257600080fd5b6103886004808035906020019091905050611a49565b604051808c73ffffffffffffffffffffffffffffffffffffffff1673ffffffffffffffffffffffffffffffffffffffff168152602001806020018b81526020018a81526020018981526020018860058111156103e057fe5b60ff1681526020018773ffffffffffffffffffffffffffffffffffffffff1673ffffffffffffffffffffffffffffffffffffffff168152602001868152602001806020018060200185815260200184810384528e8181546001816001161561010002031660029004815260200191508054600181600116156101000203166002900480156104af5780601f10610484576101008083540402835291602001916104af565b820191906000526020600020905b81548152906001019060200180831161049257829003601f168201915b50508481038352878181546001816001161561010002031660029004815260200191508054600181600116156101000203166002900480156105325780601f1061050757610100808354040283529160200191610532565b820191906000526020600020905b81548152906001019060200180831161051557829003601f168201915b50508481038252868181546001816001161561010002031660029004815260200191508054600181600116156101000203166002900480156105b55780601f1061058a576101008083540402835291602001916105b5565b820191906000526020600020905b81548152906001019060200180831161059857829003601f168201915b50509e50505050505050505050505050505060405180910390f35b34156105db57600080fd5b6105e3611aed565b6040518082815260200191505060405180910390f35b341561060457600080fd5b61061a6004808035906020019091905050611b9d565b005b341561062757600080fd5b61062f611c71565b005b341561063c57600080fd5b61065260048080359060200190919050506120fd565b005b341561065f57600080fd5b610667612107565b6040518082815260200191505060405180910390f35b341561068857600080fd5b61069061210d565b6040518082815260200191505060405180910390f35b34156106b157600080fd5b6106dd600480803573ffffffffffffffffffffffffffffffffffffffff169060200190919050506121bd565b005b34156106ea57600080fd5b6106f2612312565b604051808273ffffffffffffffffffffffffffffffffffffffff1673ffffffffffffffffffffffffffffffffffffffff16815260200191505060405180910390f35b60006001600083815260200190815260200160002060050160009054906101000a900460ff169050919050565b6000809054906101000a900473ffffffffffffffffffffffffffffffffffffffff1673ffffffffffffffffffffffffffffffffffffffff163373ffffffffffffffffffffffffffffffffffffffff161415156107bc57600080fd5b7ffb6acb6bdc33cd06ef2f939ac05c58a91bccf42266793343c04ae194c6c2febe60065482604051808381526020018281526020019250505060405180910390a18060068190555050565b60006003600581111561081657fe5b6001600084815260200190815260200160002060050160009054906101000a900460ff16600581111561084557fe5b148061088a57506004600581111561085957fe5b6001600084815260200190815260200160002060050160009054906101000a900460ff16600581111561088857fe5b145b806108cd575060058081111561089c57fe5b6001600084815260200190815260200160002060050160009054906101000a900460ff1660058111156108cb57fe5b145b9050919050565b600080600060065434101515156108ea57600080fd5b3391506000809054906101000a900473ffffffffffffffffffffffffffffffffffffffff1673ffffffffffffffffffffffffffffffffffffffff166108fc349081150290604051600060405180830381858888f19350505050151561094e57600080fd5b600560009054906101000a900473ffffffffffffffffffffffffffffffffffffffff1673ffffffffffffffffffffffffffffffffffffffff166323b872dd3330876000604051602001526040518463ffffffff167c0100000000000000000000000000000000000000000000000000000000028152600401808473ffffffffffffffffffffffffffffffffffffffff1673ffffffffffffffffffffffffffffffffffffffff1681526020018373ffffffffffffffffffffffffffffffffffffffff1673ffffffffffffffffffffffffffffffffffffffff1681526020018281526020019350505050602060405180830381600087803b1515610a4f57600080fd5b6102c65a03f11515610a6057600080fd5b50505060405180519050506007600081546001019190508190559050610160604051908101604052803373ffffffffffffffffffffffffffffffffffffffff16815260200187878080601f0160208091040260200160405190810160405280939291908181526020018383808284378201915050505050508152602001858152602001600654815260200142815260200160016005811115610afe57fe5b8152602001600073ffffffffffffffffffffffffffffffffffffffff16815260200160008152602001602060405190810160405280600081525081526020016020604051908101604052806000815250815260200160008152506001600083815260200190815260200160002060008201518160000160006101000a81548173ffffffffffffffffffffffffffffffffffffffff021916908373ffffffffffffffffffffffffffffffffffffffff1602179055506020820151816001019080519060200190610bce929190612338565b5060408201518160020155606082015181600301556080820151816004015560a08201518160050160006101000a81548160ff02191690836005811115610c1157fe5b021790555060c08201518160050160016101000a81548173ffffffffffffffffffffffffffffffffffffffff021916908373ffffffffffffffffffffffffffffffffffffffff16021790555060e08201518160060155610100820151816007019080519060200190610c84929190612338565b50610120820151816008019080519060200190610ca2929190612338565b50610140820151816009015590505060006001811115610cbe57fe5b600360009054906101000a900473ffffffffffffffffffffffffffffffffffffffff1673ffffffffffffffffffffffffffffffffffffffff1663959ac484836000604051602001526040518263ffffffff167c010000000000000000000000000000000000000000000000000000000002815260040180828152602001915050602060405180830381600087803b1515610d5757600080fd5b6102c65a03f11515610d6857600080fd5b505050604051805190506001811115610d7d57fe5b141515610e16577fe60342e12bc617a8a0d4e62d3a52ce0b5114f33203b926112c3d1bb0e194c03381838888604051808581526020018473ffffffffffffffffffffffffffffffffffffffff1673ffffffffffffffffffffffffffffffffffffffff16815260200180602001828103825284848281815260200192508082843782019150509550505050505060405180910390a1610eaf565b7f18cbc635d26242742c7367adad901a27d95e0ee6a99575e736d30a3a32647a558183888888604051808681526020018573ffffffffffffffffffffffffffffffffffffffff1673ffffffffffffffffffffffffffffffffffffffff1681526020018060200183815260200182810382528585828181526020019250808284378201915050965050505050505060405180910390a18092505b50509392505050565b60008060009054906101000a900473ffffffffffffffffffffffffffffffffffffffff1673ffffffffffffffffffffffffffffffffffffffff163373ffffffffffffffffffffffffffffffffffffffff16141515610f1557600080fd5b600073ffffffffffffffffffffffffffffffffffffffff166001600084815260200190815260200160002060000160009054906101000a900473ffffffffffffffffffffffffffffffffffffffff1673ffffffffffffffffffffffffffffffffffffffff1614151515610f8757600080fd5b600560009054906101000a900473ffffffffffffffffffffffffffffffffffffffff1673ffffffffffffffffffffffffffffffffffffffff1663a9059cbb6001600085815260200190815260200160002060000160009054906101000a900473ffffffffffffffffffffffffffffffffffffffff1660016000868152602001908152602001600020600201546000604051602001526040518363ffffffff167c0100000000000000000000000000000000000000000000000000000000028152600401808373ffffffffffffffffffffffffffffffffffffffff1673ffffffffffffffffffffffffffffffffffffffff16815260200182815260200192505050602060405180830381600087803b15156110a057600080fd5b6102c65a03f115156110b157600080fd5b505050604051805190509050919050565b6000806000600160008881526020019081526020016000209250600260058111156110e957fe5b8360050160009054906101000a900460ff16600581111561110657fe5b1415801561113b575060058081111561111b57fe5b8360050160009054906101000a900460ff16600581111561113857fe5b14155b156111a3577f5fa93aad765acb93daeff9e319bf3fed04025ff72df66a251f181a49945e30cf878460050160009054906101000a900460ff166040518083815260200182600581111561118a57fe5b60ff1681526020019250505060405180910390a16117d5565b8260050160019054906101000a900473ffffffffffffffffffffffffffffffffffffffff1673ffffffffffffffffffffffffffffffffffffffff163373ffffffffffffffffffffffffffffffffffffffff1614151561126c577ff347c161bf17d622e62922326092dd9579fd3e85fa93f6de90e7df3a7336c2fb8733604051808381526020018273ffffffffffffffffffffffffffffffffffffffff1673ffffffffffffffffffffffffffffffffffffffff1681526020019250505060405180910390a16117d5565b858360050160006101000a81548160ff0219169083600581111561128c57fe5b0217905550848360070190805190602001906112a99291906123b8565b50838360080190805190602001906112c29291906123b8565b504283600901819055506112d587610807565b15156112e057600080fd5b7fab3f77390f9428298a22c63f01f8dbae9fc57e3fa3d75e38b84ed12c2dfa621287868642604051808581526020018060200180602001848152602001838103835286818151815260200191508051906020019080838360005b8381101561135557808201518184015260208101905061133a565b50505050905090810190601f1680156113825780820380516001836020036101000a031916815260200191505b50838103825285818151815260200191508051906020019080838360005b838110156113bb5780820151818401526020810190506113a0565b50505050905090810190601f1680156113e85780820380516001836020036101000a031916815260200191505b50965050505050505060405180910390a160058081111561140557fe5b86600581111561141157fe5b1461141c573361141f565b60005b91507ff0650c5f376edbec2d0c40120d3d4bfeb6c81ba18a7026643ac7ff186587799b8783888888604051808681526020018573ffffffffffffffffffffffffffffffffffffffff1673ffffffffffffffffffffffffffffffffffffffff16815260200184600581111561148f57fe5b60ff1681526020018060200180602001838103835285818151815260200191508051906020019080838360005b838110156114d75780820151818401526020810190506114bc565b50505050905090810190601f1680156115045780820380516001836020036101000a031916815260200191505b50838103825284818151815260200191508051906020019080838360005b8381101561153d578082015181840152602081019050611522565b50505050905090810190601f16801561156a5780820380516001836020036101000a031916815260200191505b5097505050505050505060405180910390a185600581111561158857fe5b6003600581111561159557fe5b14159050600560009054906101000a900473ffffffffffffffffffffffffffffffffffffffff1673ffffffffffffffffffffffffffffffffffffffff1663a9059cbb826115e25783611608565b8460000160009054906101000a900473ffffffffffffffffffffffffffffffffffffffff165b85600201546000604051602001526040518363ffffffff167c0100000000000000000000000000000000000000000000000000000000028152600401808373ffffffffffffffffffffffffffffffffffffffff1673ffffffffffffffffffffffffffffffffffffffff16815260200182815260200192505050602060405180830381600087803b151561169a57600080fd5b6102c65a03f115156116ab57600080fd5b5050506040518051905050801561175c577fd712b46ccde5e095a18ecd18aed6bf9d83d9263601d1942365932b15f23cd7da878460000160009054906101000a900473ffffffffffffffffffffffffffffffffffffffff168560020154604051808481526020018373ffffffffffffffffffffffffffffffffffffffff1673ffffffffffffffffffffffffffffffffffffffff168152602001828152602001935050505060405180910390a16117d4565b7fea648b3eaf17a2dc7140d38177ea6c732aa308fdae50d160350b9b4588a0ddb787838560020154604051808481526020018373ffffffffffffffffffffffffffffffffffffffff1673ffffffffffffffffffffffffffffffffffffffff168152602001828152602001935050505060405180910390a15b5b50505050505050565b6000809054906101000a900473ffffffffffffffffffffffffffffffffffffffff1681565b60065481565b6000805b600460009054906101000a900473ffffffffffffffffffffffffffffffffffffffff1673ffffffffffffffffffffffffffffffffffffffff1663681fe70c6000604051602001526040518163ffffffff167c0100000000000000000000000000000000000000000000000000000000028152600401602060405180830381600087803b151561189b57600080fd5b6102c65a03f115156118ac57600080fd5b505050604051805190501515611a4457600460009054906101000a900473ffffffffffffffffffffffffffffffffffffffff1673ffffffffffffffffffffffffffffffffffffffff166359e02dd76000604051604001526040518163ffffffff167c01000000000000000000000000000000000000000000000000000000000281526004016040805180830381600087803b151561194957600080fd5b6102c65a03f1151561195a57600080fd5b50505060405180519060200180519050809250819350505061197b81611b9d565b61198481610807565b151561198f57611a45565b600460009054906101000a900473ffffffffffffffffffffffffffffffffffffffff1673ffffffffffffffffffffffffffffffffffffffff1663a4ece52c6000604051604001526040518163ffffffff167c01000000000000000000000000000000000000000000000000000000000281526004016040805180830381600087803b1515611a1c57600080fd5b6102c65a03f11515611a2d57600080fd5b50505060405180519060200180519050505061180d565b5b5050565b60016020528060005260406000206000915090508060000160009054906101000a900473ffffffffffffffffffffffffffffffffffffffff169080600101908060020154908060030154908060040154908060050160009054906101000a900460ff16908060050160019054906101000a900473ffffffffffffffffffffffffffffffffffffffff169080600601549080600701908060080190806009015490508b565b6000600360009054906101000a900473ffffffffffffffffffffffffffffffffffffffff1673ffffffffffffffffffffffffffffffffffffffff16631f7b6d326000604051602001526040518163ffffffff167c0100000000000000000000000000000000000000000000000000000000028152600401602060405180830381600087803b1515611b7d57600080fd5b6102c65a03f11515611b8e57600080fd5b50505060405180519050905090565b6000600160008381526020019081526020016000209050611bbd82610807565b158015611bd1575043600254826006015401105b15611c6d5760058160050160006101000a81548160ff02191690836005811115611bf757fe5b0217905550338160050160016101000a81548173ffffffffffffffffffffffffffffffffffffffff021916908373ffffffffffffffffffffffffffffffffffffffff160217905550611c6c826005602060405190810160405280600081525060206040519081016040528060008152506110c2565b5b5050565b600080600360009054906101000a900473ffffffffffffffffffffffffffffffffffffffff1673ffffffffffffffffffffffffffffffffffffffff1663a4ece52c6000604051604001526040518163ffffffff167c01000000000000000000000000000000000000000000000000000000000281526004016040805180830381600087803b1515611d0157600080fd5b6102c65a03f11515611d1257600080fd5b505050604051805190602001805190508092508193505050600180811115611d3657fe5b826001811115611d4257fe5b1415611d79577f20c67af46c413c2d718d4d21afe5ab6bfcb13460d2660353bc9058257cf7eb0760405160405180910390a16120f9565b60006001811115611d8657fe5b600460009054906101000a900473ffffffffffffffffffffffffffffffffffffffff1673ffffffffffffffffffffffffffffffffffffffff1663959ac484836000604051602001526040518263ffffffff167c010000000000000000000000000000000000000000000000000000000002815260040180828152602001915050602060405180830381600087803b1515611e1f57600080fd5b6102c65a03f11515611e3057600080fd5b505050604051805190506001811115611e4557fe5b141515611e88577ffc7031e125b8e2ed2fbd246d242acd6b5a3d7c18463ffbcf51be906cf961cc9d816040518082815260200191505060405180910390a16120f9565b60026001600083815260200190815260200160002060050160006101000a81548160ff02191690836005811115611ebb57fe5b0217905550336001600083815260200190815260200160002060050160016101000a81548173ffffffffffffffffffffffffffffffffffffffff021916908373ffffffffffffffffffffffffffffffffffffffff1602179055504360016000838152602001908152602001600020600601819055507f259ccce3c19b0a68ed6f7d6edad5392c91ac169045e53ee13bd4df23d4307b96816001600084815260200190815260200160002060050160019054906101000a900473ffffffffffffffffffffffffffffffffffffffff166001600085815260200190815260200160002060000160009054906101000a900473ffffffffffffffffffffffffffffffffffffffff16600160008681526020019081526020016000206001016001600087815260200190815260200160002060020154604051808681526020018573ffffffffffffffffffffffffffffffffffffffff1673ffffffffffffffffffffffffffffffffffffffff1681526020018473ffffffffffffffffffffffffffffffffffffffff1673ffffffffffffffffffffffffffffffffffffffff168152602001806020018381526020018281038252848181546001816001161561010002031660029004815260200191508054600181600116156101000203166002900480156120e65780601f106120bb576101008083540402835291602001916120e6565b820191906000526020600020905b8154815290600101906020018083116120c957829003601f168201915b5050965050505050505060405180910390a15b5050565b8060028190555050565b60025481565b6000600360009054906101000a900473ffffffffffffffffffffffffffffffffffffffff1673ffffffffffffffffffffffffffffffffffffffff16635cfc1a516000604051602001526040518163ffffffff167c0100000000000000000000000000000000000000000000000000000000028152600401602060405180830381600087803b151561219d57600080fd5b6102c65a03f115156121ae57600080fd5b50505060405180519050905090565b6000809054906101000a900473ffffffffffffffffffffffffffffffffffffffff1673ffffffffffffffffffffffffffffffffffffffff163373ffffffffffffffffffffffffffffffffffffffff1614151561221857600080fd5b600073ffffffffffffffffffffffffffffffffffffffff168173ffffffffffffffffffffffffffffffffffffffff161415151561225457600080fd5b8073ffffffffffffffffffffffffffffffffffffffff166000809054906101000a900473ffffffffffffffffffffffffffffffffffffffff1673ffffffffffffffffffffffffffffffffffffffff167f8be0079c531659141344cd1fd0a4f28419497f9722a3daafe3b4186f6b6457e060405160405180910390a3806000806101000a81548173ffffffffffffffffffffffffffffffffffffffff021916908373ffffffffffffffffffffffffffffffffffffffff16021790555050565b600560009054906101000a900473ffffffffffffffffffffffffffffffffffffffff1681565b828054600181600116156101000203166002900490600052602060002090601f016020900481019282601f1061237957805160ff19168380011785556123a7565b828001600101855582156123a7579182015b828111156123a657825182559160200191906001019061238b565b5b5090506123b49190612438565b5090565b828054600181600116156101000203166002900490600052602060002090601f016020900481019282601f106123f957805160ff1916838001178555612427565b82800160010185558215612427579182015b8281111561242657825182559160200191906001019061240b565b5b5090506124349190612438565b5090565b61245a91905b8082111561245657600081600090555060010161243e565b5090565b905600a165627a7a723058207c5bd8f2d3d32af0ce83b73f5ba05adfd50c3fb0f89e56815448eaaf3e79c82a00296060604052341561000f57600080fd5b60405160208061045c83398101604052808051906020019091905050806000816100399190610040565b5050610091565b81548183558181151161006757818360005260206000209182019101610066919061006c565b5b505050565b61008e91905b8082111561008a576000816000905550600101610072565b5090565b90565b6103bc806100a06000396000f300606060405260043610610078576000357c0100000000000000000000000000000000000000000000000000000000900463ffffffff1680631f7b6d321461007d57806359e02dd7146100a65780635cfc1a51146100e4578063681fe70c1461010d578063959ac4841461013a578063a4ece52c1461017f575b600080fd5b341561008857600080fd5b6100906101bd565b6040518082815260200191505060405180910390f35b34156100b157600080fd5b6100b96101e1565b604051808360018111156100c957fe5b60ff1681526020018281526020019250505060405180910390f35b34156100ef57600080fd5b6100f761024d565b6040518082815260200191505060405180910390f35b341561011857600080fd5b610120610259565b604051808215151515815260200191505060405180910390f35b341561014557600080fd5b61015b6004808035906020019091905050610267565b6040518082600181111561016b57fe5b60ff16815260200191505060405180910390f35b341561018a57600080fd5b61019261031e565b604051808360018111156101a257fe5b60ff1681526020018281526020019250505060405180910390f35b6000808054905060015460025460008054905001038115156101db57fe5b06905090565b6000806001546002541415610225577f4db75321684cd0d6e0e125a66ec2528d020aef002c3f0ec6496834093cd54dca60405160405180910390a160019150610249565b600060015481548110151561023657fe5b9060005260206000209001549050600091505b9091565b60008080549050905090565b600060025460015414905090565b600060015460008054905060016002540181151561028157fe5b0614156102d7577fe4cf1575794282126d64325add4a7c5c0588302eb730f52a7c46bc3341de2e316102b161024d565b83604051808381526020018281526020019250505060405180910390a160019050610319565b8160006002548154811015156102e957fe5b90600052602060002090018190555060008054905060016002540181151561030d57fe5b06600281905550600090505b919050565b6000806103296101e1565b80925081935050506000600181111561033e57fe5b82600181111561034a57fe5b141561038c57600060015481548110151561036157fe5b906000526020600020900160009055600080549050600180540181151561038457fe5b066001819055505b90915600a165627a7a72305820b467c59e8af0c2c3e5e46e2122ef1464aebc33c95a764529a63c9844d269e8780029",
  "source": "pragma solidity 0.4.19;\n\nimport \"zeppelin-solidity/contracts/math/SafeMath.sol\";\nimport \"zeppelin-solidity/contracts/token/ERC20/StandardToken.sol\";\nimport \"zeppelin-solidity/contracts/ownership/Ownable.sol\";\n\nimport \"./Queue.sol\";\n\ncontract QuantstampAudit is Ownable {\n  using SafeMath for uint256;\n\n  // state of audit requests submitted to the contract\n  enum AuditState {\n    None,\n    Queued,\n    Assigned,\n    Completed,  // automated audit finished successfully and the report is available\n    Error,      // automated audit failed to finish; the report contains detailed information about the error\n    Timeout     // automated audit timed out, as no auditor node returned the report\n  }\n\n  // structure representing an audit\n  struct Audit {\n    address requestor;\n    string contractUri;\n    uint256 price;\n    uint256 transactionFee;\n    uint requestTimestamp; // approximate time of when audit was requested\n    AuditState state;\n    address auditor;       // the address of the node assigned to the audit\n    uint assignTimestamp;  // approximate time of when audit was assigned\n    string reportUri;      // stores the audit report URI\n    string reportHash;     // stores the hash of audit report\n    uint reportTimestamp;  // approximate time of when the payment and the audit report were submitted\n  }\n\n  // map audits (requestId, Audit)\n  mapping(uint256 => Audit) public audits;\n\n  // TODO: figure out what a reasonable value for timeout is. For now 10 blocks.\n  uint public auditTimeoutInBlocks = 10;\n\n  Uint256Queue requestQueue;\n  Uint256Queue assignedQueue;\n  uint constant REQUEST_QUEUE_CAPACITY = 30000;\n\n  // token used to pay for audits. This contract assumes that the owner of the contract trusts token's code and\n  // that transfer function (such as transferFrom, transfer) do the right thing\n  StandardToken public token;\n\n  // transaction fee is required to pay auditors their reward or refund the tokens to the requestor\n  // the fee is used to offset the gas cost needed to invoke submitReport()\n  uint256 public transactionFee;\n\n  event LogAuditFinished(\n    uint256 requestId,\n    string reportUri,\n    string reportHash,\n    uint reportTimestamp\n  );\n\n  event LogAuditQueued(uint256 requestId, address requestor, string uri, uint256 price);\n  event LogAuditAssigned(uint256 requestId, address auditor, address requestor, string uri, uint256 price);\n  event LogReportSubmitted(uint256 requestId, address auditor, AuditState auditResult, string reportUri, string reportHash);\n  event LogReportSubmissionError_InvalidAuditor(uint256 requestId, address auditor);\n  event LogReportSubmissionError_InvalidState(uint256 requestId, AuditState state);\n  event LogErrorAlreadyAudited(uint256 requestId, address requestor, string uri);\n  event LogUnableToQueueAudit(uint256 requestId, address requestor, string uri);\n  event LogUnableToAssignAudit(uint256 requestId);\n  event LogAuditQueueIsEmpty();\n\n  event LogPayAuditor(uint256 requestId, address auditor, uint256 amount);\n  event LogRefund(uint256 requestId, address requestor, uint256 amount);\n  event LogTransactionFeeChanged(uint256 oldFee, uint256 newFee);\n\n  // error handling events\n  // payment is requested for an audit that is already already paid or does not exist\n  event LogErrorAuditNotPending(uint256 requestId, address auditor);\n\n  uint256 private requestCounter;\n\n  /**\n   * @dev The constructor creates an audit contract.\n   * @param tokenAddress The address of a StandardToken that will be used to pay auditor nodes.\n   */\n  function QuantstampAudit(address tokenAddress) public {\n    require(tokenAddress != address(0));\n    token = StandardToken(tokenAddress);\n    requestQueue = new Uint256Queue(REQUEST_QUEUE_CAPACITY);\n    assignedQueue = new Uint256Queue(REQUEST_QUEUE_CAPACITY);\n  }\n\n  /**\n   * @dev Submits audit request.\n   * @param contractUri Identifier of the resource to audit.\n   * @param price The total amount of tokens that will be paid for the audit.\n   */\n  function requestAudit(string contractUri, uint256 price) external payable returns(uint256) {\n    // check if user sends enough pre-paid gas\n    require(msg.value >= transactionFee);\n    // the sender is the requestor\n    address requestor = msg.sender;\n    // transfer transaction fee (in Wei) to the contract owner to offset gas cost\n    owner.transfer(msg.value);\n    // transfer tokens to this contract\n    token.transferFrom(msg.sender, this, price);\n    // assign the next request ID\n    uint256 requestId = ++requestCounter;\n    // store the audit\n    audits[requestId] = Audit(msg.sender, contractUri, price, transactionFee, block.timestamp,\n                              AuditState.Queued, address(0), 0, \"\", \"\", 0);\n\n    if (requestQueue.push(requestId) != Uint256Queue.PushResult.Success) {\n      LogUnableToQueueAudit(requestId, requestor, contractUri);\n      return;\n    }\n    LogAuditQueued(requestId, requestor, contractUri, price);\n\n    return requestId;\n  }\n\n  /**\n   * @dev Submits the report and pays the auditor node for their work or refunds tokens to the requestor in case of an error.\n   * @param requestId Unique identifier of the audit request.\n   * @param auditResult Result of an audit.\n   * @param reportUri URI to the generated report.\n   * @param reportHash Hash of the generated report.\n   */\n  function submitReport(uint256 requestId, AuditState auditResult, string reportUri, string reportHash) public {\n    Audit storage audit = audits[requestId];\n    if (audit.state != AuditState.Assigned && audit.state != AuditState.Timeout) {\n      LogReportSubmissionError_InvalidState(requestId, audit.state);\n      return;\n    }\n\n    // the sender must be the auditor\n    if (msg.sender != audit.auditor)  {\n      LogReportSubmissionError_InvalidAuditor(requestId, msg.sender);\n      return;\n    }\n\n    // update the audit information held in this contract\n    audit.state = auditResult;\n    audit.reportUri = reportUri;\n    audit.reportHash = reportHash;\n    audit.reportTimestamp = block.timestamp;\n\n    // validate the audit state\n    require(isAuditFinished(requestId));\n    LogAuditFinished(requestId, reportUri, reportHash, block.timestamp);\n\n    // if the analysis timeouts, the auditor address is set to 0\n    address auditor = auditResult == AuditState.Timeout ? address(0) : msg.sender;\n    LogReportSubmitted(requestId, auditor, auditResult, reportUri, reportHash);\n\n    bool isRefund = AuditState.Completed != auditResult;\n    // pay the requestor in case of a refund; pay the auditor node otherwise\n    token.transfer(isRefund ? audit.requestor : auditor, audit.price);\n    if (isRefund) {\n      LogRefund(requestId, audit.requestor, audit.price);\n    } else {\n      LogPayAuditor(requestId, auditor, audit.price);\n    }\n  }\n\n  function getNextAuditRequest() public {\n    Uint256Queue.PopResult popResult;\n    uint256 requestId;\n\n    (popResult, requestId) = requestQueue.pop();\n    if (popResult == Uint256Queue.PopResult.QueueIsEmpty) {\n      LogAuditQueueIsEmpty(); // TODO should this contain msg.sender as an argument?\n      return;\n    }\n    if (assignedQueue.push(requestId) != Uint256Queue.PushResult.Success) {\n      LogUnableToAssignAudit(requestId);\n      return;\n    }\n    audits[requestId].state = AuditState.Assigned;\n    audits[requestId].auditor = msg.sender;\n    audits[requestId].assignTimestamp = block.number;\n\n    LogAuditAssigned(\n      requestId,\n      audits[requestId].auditor,\n      audits[requestId].requestor,\n      audits[requestId].contractUri,\n      audits[requestId].price\n    );\n  }\n\n  /**\n   * @dev Sets transaction fee in Wei\n   * @param fee Transaction fee in Wei.\n   */\n  function setTransactionFee(uint256 fee) external onlyOwner {\n    LogTransactionFeeChanged(transactionFee, fee);\n    transactionFee = fee;\n  }\n\n  // Loops over front audits in the assigned queue to detect timeouts. If an audit is finished, removes it from the queue.\n  function detectAuditTimeouts() public {\n    Uint256Queue.PopResult popResult;\n    uint256 requestId;\n\n    // loops over the queue while not empty\n    while(!assignedQueue.isEmpty()) {\n      // looks at the front of the queue\n      (popResult, requestId) = assignedQueue.peek();\n      detectTimeout(requestId);\n      // if the audit at the front is still pending, return\n      if (!isAuditFinished(requestId)) {\n        return;\n      }\n      // otherwise, remove the element and keep looping\n      assignedQueue.pop();\n    }\n  }\n\n  /**\n   * @dev Detects if a given audit request timed out. If so, it sets requests' status to timeout and submits the report.\n   * @param requestId Unique ID of the audit request.\n   */\n  function detectTimeout(uint256 requestId) public {\n    Audit storage audit = audits[requestId];\n\n    // conditions for detecting a timeout\n    if (!isAuditFinished(requestId) &&\n      ((audit.assignTimestamp + auditTimeoutInBlocks) < block.number)) {\n      // updates the status\n      audit.state = AuditState.Timeout;\n      audit.auditor = msg.sender;\n      // submits a report for timeout\n      submitReport(requestId, AuditState.Timeout, \"\", \"\");\n    }\n  }\n\n\n  /**\n   * @dev Checks if an audit is finished. It is considered finished when the audit is either completed or failed.\n   * @param requestId Unique ID of the audit request.\n   */\n  function isAuditFinished(uint256 requestId) view public returns(bool) {\n    return audits[requestId].state == AuditState.Completed \n    || audits[requestId].state == AuditState.Error \n    || audits[requestId].state == AuditState.Timeout;\n  }\n\n  /**\n   * @dev Returns funds to the requestor.\n   * @param requestId Unique ID of the audit request.\n   */\n  function refund(uint256 requestId) external onlyOwner returns(bool) {\n    require(audits[requestId].requestor != address(0));\n    return token.transfer(audits[requestId].requestor, audits[requestId].price);\n  }\n\n  function getAuditState(uint256 requestId) public constant returns(AuditState) {\n    return audits[requestId].state;\n  }\n\n  function getQueueLength() public constant returns(uint) {\n    return requestQueue.length();\n  }\n\n  function getQueueCapacity() public constant returns(uint) {\n    return requestQueue.capacity();\n  }\n\n  function setAuditTimeout(uint timeoutInBlocks) public {\n    auditTimeoutInBlocks = timeoutInBlocks;\n  }\n}\n",
  "sourcePath": "/home/ezulkosk/quantstamp/poa/audit-contract/contracts/QuantstampAudit.sol",
  "compiler": {
    "name": "solc",
    "version": "0.4.19+commit.c4cbbb05.Emscripten.clang"
  },
  "schemaVersion": "1.0.1",
  "updatedAt": "2018-04-26T17:35:12.901Z"
}