{
  "contractName": "Uint256Queue",
  "abi": [
    {
      "inputs": [
        {
          "name": "capacity",
          "type": "uint256"
        }
      ],
      "payable": false,
      "stateMutability": "nonpayable",
      "type": "constructor"
    },
    {
      "anonymous": false,
      "inputs": [],
      "name": "LogQueueIsEmptyError",
      "type": "event"
    },
    {
      "anonymous": false,
      "inputs": [
        {
          "indexed": false,
          "name": "capacity",
          "type": "uint256"
        },
        {
          "indexed": false,
          "name": "item",
          "type": "uint256"
        }
      ],
      "name": "LogQueueIsFullError",
      "type": "event"
    },
    {
      "anonymous": false,
      "inputs": [
        {
          "indexed": false,
          "name": "item",
          "type": "uint256"
        }
      ],
      "name": "LogInvalidItem",
      "type": "event"
    },
    {
      "constant": true,
      "inputs": [],
      "name": "length",
      "outputs": [
        {
          "name": "",
          "type": "uint256"
        }
      ],
      "payable": false,
      "stateMutability": "view",
      "type": "function"
    },
    {
      "constant": true,
      "inputs": [],
      "name": "capacity",
      "outputs": [
        {
          "name": "",
          "type": "uint256"
        }
      ],
      "payable": false,
      "stateMutability": "view",
      "type": "function"
    },
    {
      "constant": true,
      "inputs": [],
      "name": "isEmpty",
      "outputs": [
        {
          "name": "",
          "type": "bool"
        }
      ],
      "payable": false,
      "stateMutability": "view",
      "type": "function"
    },
    {
      "constant": false,
      "inputs": [
        {
          "name": "item",
          "type": "uint256"
        }
      ],
      "name": "push",
      "outputs": [
        {
          "name": "",
          "type": "uint8"
        }
      ],
      "payable": false,
      "stateMutability": "nonpayable",
      "type": "function"
    },
    {
      "constant": false,
      "inputs": [],
      "name": "pop",
      "outputs": [
        {
          "name": "result",
          "type": "uint8"
        },
        {
          "name": "item",
          "type": "uint256"
        }
      ],
      "payable": false,
      "stateMutability": "nonpayable",
      "type": "function"
    },
    {
      "constant": false,
      "inputs": [],
      "name": "peek",
      "outputs": [
        {
          "name": "result",
          "type": "uint8"
        },
        {
          "name": "item",
          "type": "uint256"
        }
      ],
      "payable": false,
      "stateMutability": "nonpayable",
      "type": "function"
    }
  ],
  "bytecode": "0x6060604052341561000f57600080fd5b60405160208061045c83398101604052808051906020019091905050806000816100399190610040565b5050610091565b81548183558181151161006757818360005260206000209182019101610066919061006c565b5b505050565b61008e91905b8082111561008a576000816000905550600101610072565b5090565b90565b6103bc806100a06000396000f300606060405260043610610078576000357c0100000000000000000000000000000000000000000000000000000000900463ffffffff1680631f7b6d321461007d57806359e02dd7146100a65780635cfc1a51146100e4578063681fe70c1461010d578063959ac4841461013a578063a4ece52c1461017f575b600080fd5b341561008857600080fd5b6100906101bd565b6040518082815260200191505060405180910390f35b34156100b157600080fd5b6100b96101e1565b604051808360018111156100c957fe5b60ff1681526020018281526020019250505060405180910390f35b34156100ef57600080fd5b6100f761024d565b6040518082815260200191505060405180910390f35b341561011857600080fd5b610120610259565b604051808215151515815260200191505060405180910390f35b341561014557600080fd5b61015b6004808035906020019091905050610267565b6040518082600181111561016b57fe5b60ff16815260200191505060405180910390f35b341561018a57600080fd5b61019261031e565b604051808360018111156101a257fe5b60ff1681526020018281526020019250505060405180910390f35b6000808054905060015460025460008054905001038115156101db57fe5b06905090565b6000806001546002541415610225577f4db75321684cd0d6e0e125a66ec2528d020aef002c3f0ec6496834093cd54dca60405160405180910390a160019150610249565b600060015481548110151561023657fe5b9060005260206000209001549050600091505b9091565b60008080549050905090565b600060025460015414905090565b600060015460008054905060016002540181151561028157fe5b0614156102d7577fe4cf1575794282126d64325add4a7c5c0588302eb730f52a7c46bc3341de2e316102b161024d565b83604051808381526020018281526020019250505060405180910390a160019050610319565b8160006002548154811015156102e957fe5b90600052602060002090018190555060008054905060016002540181151561030d57fe5b06600281905550600090505b919050565b6000806103296101e1565b80925081935050506000600181111561033e57fe5b82600181111561034a57fe5b141561038c57600060015481548110151561036157fe5b906000526020600020900160009055600080549050600180540181151561038457fe5b066001819055505b90915600a165627a7a72305820b75e5f79c157d585ed67adf0a4c91fc14ff2059b1f0adc2720e60dcac1f59ff40029",
  "source": "pragma solidity 0.4.19;\n\n////////////////////////////////////////////////////////////\n// Based on: https://github.com/chriseth/solidity-examples/blob/master/queue.sol\n////////////////////////////////////////////////////////////\ncontract Uint256Queue {\n  uint256[] private data;\n  uint private front;\n  uint private back;\n\n  event LogQueueIsEmptyError();\n  event LogQueueIsFullError(uint capacity, uint256 item);\n  event LogInvalidItem(uint256 item);\n\n  enum PopResult {\n    Success,\n    QueueIsEmpty\n  }\n\n  enum PushResult {\n    Success,\n    QueueIsFull\n  }\n\n  function Uint256Queue(uint capacity) public {\n    data.length = capacity;\n  }\n\n  function length() constant public returns (uint) {\n    return (data.length + back - front) % data.length;\n  }\n\n  function capacity() constant public returns (uint) {\n    return data.length;\n  }\n\n  function isEmpty() constant public returns (bool) {\n    return front == back;\n  }\n\n  function push(uint256 item) public returns (PushResult) {\n    if ((back + 1) % data.length == front) {\n      LogQueueIsFullError(capacity(), item);\n      return PushResult.QueueIsFull;\n    }\n    data[back] = item;\n    back = (back + 1) % data.length;\n    return PushResult.Success;\n  }\n\n  function pop() public returns (PopResult result, uint256 item) {\n    (result, item) = peek();\n    if (result == PopResult.Success) {\n      delete(data[front]);\n      front = (front + 1) % data.length;\n    }\n  }\n\n  function peek() public returns (PopResult result, uint256 item) {\n    if (back == front) {\n      LogQueueIsEmptyError();\n      result = PopResult.QueueIsEmpty;\n      return;\n    }\n    item = data[front];\n    result = PopResult.Success;\n  }\n}\n",
  "sourcePath": "/home/ezulkosk/quantstamp/protocol/qsp-protocol-audit-contract/contracts/Queue.sol",
  "compiler": {
    "name": "solc",
    "version": "0.4.19+commit.c4cbbb05.Emscripten.clang"
  },
  "schemaVersion": "1.0.1",
  "updatedAt": "2018-04-26T17:51:54.895Z"
}